{
  "contractName": "MerkleProofCollectible",
  "abi": [
    {
      "inputs": [],
      "stateMutability": "nonpayable",
      "type": "constructor"
    },
    {
      "inputs": [],
      "name": "ApprovalCallerNotOwnerNorApproved",
      "type": "error"
    },
    {
      "inputs": [],
      "name": "ApprovalQueryForNonexistentToken",
      "type": "error"
    },
    {
      "inputs": [],
      "name": "ApprovalToCurrentOwner",
      "type": "error"
    },
    {
      "inputs": [],
      "name": "ApproveToCaller",
      "type": "error"
    },
    {
      "inputs": [],
      "name": "BalanceQueryForZeroAddress",
      "type": "error"
    },
    {
      "inputs": [],
      "name": "MintToZeroAddress",
      "type": "error"
    },
    {
      "inputs": [],
      "name": "MintZeroQuantity",
      "type": "error"
    },
    {
      "inputs": [],
      "name": "OwnerQueryForNonexistentToken",
      "type": "error"
    },
    {
      "inputs": [],
      "name": "TransferCallerNotOwnerNorApproved",
      "type": "error"
    },
    {
      "inputs": [],
      "name": "TransferFromIncorrectOwner",
      "type": "error"
    },
    {
      "inputs": [],
      "name": "TransferToNonERC721ReceiverImplementer",
      "type": "error"
    },
    {
      "inputs": [],
      "name": "TransferToZeroAddress",
      "type": "error"
    },
    {
      "inputs": [],
      "name": "URIQueryForNonexistentToken",
      "type": "error"
    },
    {
      "anonymous": false,
      "inputs": [
        {
          "indexed": true,
          "internalType": "address",
          "name": "owner",
          "type": "address"
        },
        {
          "indexed": true,
          "internalType": "address",
          "name": "approved",
          "type": "address"
        },
        {
          "indexed": true,
          "internalType": "uint256",
          "name": "tokenId",
          "type": "uint256"
        }
      ],
      "name": "Approval",
      "type": "event"
    },
    {
      "anonymous": false,
      "inputs": [
        {
          "indexed": true,
          "internalType": "address",
          "name": "owner",
          "type": "address"
        },
        {
          "indexed": true,
          "internalType": "address",
          "name": "operator",
          "type": "address"
        },
        {
          "indexed": false,
          "internalType": "bool",
          "name": "approved",
          "type": "bool"
        }
      ],
      "name": "ApprovalForAll",
      "type": "event"
    },
    {
      "anonymous": false,
      "inputs": [
        {
          "indexed": true,
          "internalType": "address",
          "name": "previousOwner",
          "type": "address"
        },
        {
          "indexed": true,
          "internalType": "address",
          "name": "newOwner",
          "type": "address"
        }
      ],
      "name": "OwnershipTransferred",
      "type": "event"
    },
    {
      "anonymous": false,
      "inputs": [
        {
          "indexed": true,
          "internalType": "address",
          "name": "from",
          "type": "address"
        },
        {
          "indexed": true,
          "internalType": "address",
          "name": "to",
          "type": "address"
        },
        {
          "indexed": true,
          "internalType": "uint256",
          "name": "tokenId",
          "type": "uint256"
        }
      ],
      "name": "Transfer",
      "type": "event"
    },
    {
      "inputs": [],
      "name": "MAX_PUBLIC_MINT",
      "outputs": [
        {
          "internalType": "uint256",
          "name": "",
          "type": "uint256"
        }
      ],
      "stateMutability": "view",
      "type": "function"
    },
    {
      "inputs": [],
      "name": "MAX_SUPPLY",
      "outputs": [
        {
          "internalType": "uint256",
          "name": "",
          "type": "uint256"
        }
      ],
      "stateMutability": "view",
      "type": "function"
    },
    {
      "inputs": [],
      "name": "MAX_WHITELIST_MINT",
      "outputs": [
        {
          "internalType": "uint256",
          "name": "",
          "type": "uint256"
        }
      ],
      "stateMutability": "view",
      "type": "function"
    },
    {
      "inputs": [],
      "name": "PUBLIC_SALE_PRICE",
      "outputs": [
        {
          "internalType": "uint256",
          "name": "",
          "type": "uint256"
        }
      ],
      "stateMutability": "view",
      "type": "function"
    },
    {
      "inputs": [],
      "name": "WHITELIST_SALE_PRICE",
      "outputs": [
        {
          "internalType": "uint256",
          "name": "",
          "type": "uint256"
        }
      ],
      "stateMutability": "view",
      "type": "function"
    },
    {
      "inputs": [
        {
          "internalType": "address",
          "name": "to",
          "type": "address"
        },
        {
          "internalType": "uint256",
          "name": "tokenId",
          "type": "uint256"
        }
      ],
      "name": "approve",
      "outputs": [],
      "stateMutability": "nonpayable",
      "type": "function"
    },
    {
      "inputs": [
        {
          "internalType": "address",
          "name": "owner",
          "type": "address"
        }
      ],
      "name": "balanceOf",
      "outputs": [
        {
          "internalType": "uint256",
          "name": "",
          "type": "uint256"
        }
      ],
      "stateMutability": "view",
      "type": "function"
    },
    {
      "inputs": [
        {
          "internalType": "uint256",
          "name": "tokenId",
          "type": "uint256"
        }
      ],
      "name": "getApproved",
      "outputs": [
        {
          "internalType": "address",
          "name": "",
          "type": "address"
        }
      ],
      "stateMutability": "view",
      "type": "function"
    },
    {
      "inputs": [
        {
          "internalType": "address",
          "name": "owner",
          "type": "address"
        },
        {
          "internalType": "address",
          "name": "operator",
          "type": "address"
        }
      ],
      "name": "isApprovedForAll",
      "outputs": [
        {
          "internalType": "bool",
          "name": "",
          "type": "bool"
        }
      ],
      "stateMutability": "view",
      "type": "function"
    },
    {
      "inputs": [],
      "name": "isRevealed",
      "outputs": [
        {
          "internalType": "bool",
          "name": "",
          "type": "bool"
        }
      ],
      "stateMutability": "view",
      "type": "function"
    },
    {
      "inputs": [],
      "name": "name",
      "outputs": [
        {
          "internalType": "string",
          "name": "",
          "type": "string"
        }
      ],
      "stateMutability": "view",
      "type": "function"
    },
    {
      "inputs": [],
      "name": "owner",
      "outputs": [
        {
          "internalType": "address",
          "name": "",
          "type": "address"
        }
      ],
      "stateMutability": "view",
      "type": "function"
    },
    {
      "inputs": [
        {
          "internalType": "uint256",
          "name": "tokenId",
          "type": "uint256"
        }
      ],
      "name": "ownerOf",
      "outputs": [
        {
          "internalType": "address",
          "name": "",
          "type": "address"
        }
      ],
      "stateMutability": "view",
      "type": "function"
    },
    {
      "inputs": [],
      "name": "pause",
      "outputs": [
        {
          "internalType": "bool",
          "name": "",
          "type": "bool"
        }
      ],
      "stateMutability": "view",
      "type": "function"
    },
    {
      "inputs": [],
      "name": "placeholderTokenUri",
      "outputs": [
        {
          "internalType": "string",
          "name": "",
          "type": "string"
        }
      ],
      "stateMutability": "view",
      "type": "function"
    },
    {
      "inputs": [],
      "name": "publicSale",
      "outputs": [
        {
          "internalType": "bool",
          "name": "",
          "type": "bool"
        }
      ],
      "stateMutability": "view",
      "type": "function"
    },
    {
      "inputs": [],
      "name": "renounceOwnership",
      "outputs": [],
      "stateMutability": "nonpayable",
      "type": "function"
    },
    {
      "inputs": [
        {
          "internalType": "address",
          "name": "from",
          "type": "address"
        },
        {
          "internalType": "address",
          "name": "to",
          "type": "address"
        },
        {
          "internalType": "uint256",
          "name": "tokenId",
          "type": "uint256"
        }
      ],
      "name": "safeTransferFrom",
      "outputs": [],
      "stateMutability": "nonpayable",
      "type": "function"
    },
    {
      "inputs": [
        {
          "internalType": "address",
          "name": "from",
          "type": "address"
        },
        {
          "internalType": "address",
          "name": "to",
          "type": "address"
        },
        {
          "internalType": "uint256",
          "name": "tokenId",
          "type": "uint256"
        },
        {
          "internalType": "bytes",
          "name": "_data",
          "type": "bytes"
        }
      ],
      "name": "safeTransferFrom",
      "outputs": [],
      "stateMutability": "nonpayable",
      "type": "function"
    },
    {
      "inputs": [
        {
          "internalType": "address",
          "name": "operator",
          "type": "address"
        },
        {
          "internalType": "bool",
          "name": "approved",
          "type": "bool"
        }
      ],
      "name": "setApprovalForAll",
      "outputs": [],
      "stateMutability": "nonpayable",
      "type": "function"
    },
    {
      "inputs": [
        {
          "internalType": "bytes4",
          "name": "interfaceId",
          "type": "bytes4"
        }
      ],
      "name": "supportsInterface",
      "outputs": [
        {
          "internalType": "bool",
          "name": "",
          "type": "bool"
        }
      ],
      "stateMutability": "view",
      "type": "function"
    },
    {
      "inputs": [],
      "name": "symbol",
      "outputs": [
        {
          "internalType": "string",
          "name": "",
          "type": "string"
        }
      ],
      "stateMutability": "view",
      "type": "function"
    },
    {
      "inputs": [],
      "name": "teamMinted",
      "outputs": [
        {
          "internalType": "bool",
          "name": "",
          "type": "bool"
        }
      ],
      "stateMutability": "view",
      "type": "function"
    },
    {
      "inputs": [
        {
          "internalType": "address",
          "name": "",
          "type": "address"
        }
      ],
      "name": "totalPublicMint",
      "outputs": [
        {
          "internalType": "uint256",
          "name": "",
          "type": "uint256"
        }
      ],
      "stateMutability": "view",
      "type": "function"
    },
    {
      "inputs": [],
      "name": "totalSupply",
      "outputs": [
        {
          "internalType": "uint256",
          "name": "",
          "type": "uint256"
        }
      ],
      "stateMutability": "view",
      "type": "function"
    },
    {
      "inputs": [
        {
          "internalType": "address",
          "name": "",
          "type": "address"
        }
      ],
      "name": "totalWhitelistMint",
      "outputs": [
        {
          "internalType": "uint256",
          "name": "",
          "type": "uint256"
        }
      ],
      "stateMutability": "view",
      "type": "function"
    },
    {
      "inputs": [
        {
          "internalType": "address",
          "name": "from",
          "type": "address"
        },
        {
          "internalType": "address",
          "name": "to",
          "type": "address"
        },
        {
          "internalType": "uint256",
          "name": "tokenId",
          "type": "uint256"
        }
      ],
      "name": "transferFrom",
      "outputs": [],
      "stateMutability": "nonpayable",
      "type": "function"
    },
    {
      "inputs": [
        {
          "internalType": "address",
          "name": "newOwner",
          "type": "address"
        }
      ],
      "name": "transferOwnership",
      "outputs": [],
      "stateMutability": "nonpayable",
      "type": "function"
    },
    {
      "inputs": [],
      "name": "whiteListSale",
      "outputs": [
        {
          "internalType": "bool",
          "name": "",
          "type": "bool"
        }
      ],
      "stateMutability": "view",
      "type": "function"
    },
    {
      "inputs": [
        {
          "internalType": "uint256",
          "name": "_quantity",
          "type": "uint256"
        }
      ],
      "name": "mint",
      "outputs": [],
      "stateMutability": "payable",
      "type": "function"
    },
    {
      "inputs": [
        {
          "internalType": "bytes32[]",
          "name": "_merkleProof",
          "type": "bytes32[]"
        },
        {
          "internalType": "uint256",
          "name": "_quantity",
          "type": "uint256"
        }
      ],
      "name": "whitelistMint",
      "outputs": [],
      "stateMutability": "payable",
      "type": "function"
    },
    {
      "inputs": [],
      "name": "teamMint",
      "outputs": [],
      "stateMutability": "nonpayable",
      "type": "function"
    },
    {
      "inputs": [
        {
          "internalType": "uint256",
          "name": "tokenId",
          "type": "uint256"
        }
      ],
      "name": "tokenURI",
      "outputs": [
        {
          "internalType": "string",
          "name": "",
          "type": "string"
        }
      ],
      "stateMutability": "view",
      "type": "function"
    },
    {
      "inputs": [
        {
          "internalType": "string",
          "name": "_baseTokenUri",
          "type": "string"
        }
      ],
      "name": "setTokenUri",
      "outputs": [],
      "stateMutability": "nonpayable",
      "type": "function"
    },
    {
      "inputs": [
        {
          "internalType": "string",
          "name": "_placeholderTokenUri",
          "type": "string"
        }
      ],
      "name": "setPlaceHolderUri",
      "outputs": [],
      "stateMutability": "nonpayable",
      "type": "function"
    },
    {
      "inputs": [
        {
          "internalType": "bytes32",
          "name": "_merkleRoot",
          "type": "bytes32"
        }
      ],
      "name": "setMerkleRoot",
      "outputs": [],
      "stateMutability": "nonpayable",
      "type": "function"
    },
    {
      "inputs": [],
      "name": "getMerkleRoot",
      "outputs": [
        {
          "internalType": "bytes32",
          "name": "",
          "type": "bytes32"
        }
      ],
      "stateMutability": "view",
      "type": "function"
    },
    {
      "inputs": [],
      "name": "togglePause",
      "outputs": [],
      "stateMutability": "nonpayable",
      "type": "function"
    },
    {
      "inputs": [],
      "name": "toggleWhiteListSale",
      "outputs": [],
      "stateMutability": "nonpayable",
      "type": "function"
    },
    {
      "inputs": [],
      "name": "togglePublicSale",
      "outputs": [],
      "stateMutability": "nonpayable",
      "type": "function"
    },
    {
      "inputs": [],
      "name": "toggleReveal",
      "outputs": [],
      "stateMutability": "nonpayable",
      "type": "function"
    },
    {
      "inputs": [],
      "name": "withdraw",
      "outputs": [],
      "stateMutability": "nonpayable",
      "type": "function"
    }
  ],
  "bytecode": "0x60806040523480156200001157600080fd5b506040518060400160405280600b81526020017f48656e2050726f6a6563740000000000000000000000000000000000000000008152506040518060400160405280600381526020017f48454e0000000000000000000000000000000000000000000000000000000000815250816002908051906020019062000096929190620001c1565b508060039080519060200190620000af929190620001c1565b50620000c0620000ee60201b60201c565b6000819055505050620000e8620000dc620000f360201b60201c565b620000fb60201b60201c565b620002d5565b600090565b600033905090565b6000600860009054906101000a900473ffffffffffffffffffffffffffffffffffffffff16905081600860006101000a81548173ffffffffffffffffffffffffffffffffffffffff021916908373ffffffffffffffffffffffffffffffffffffffff1602179055508173ffffffffffffffffffffffffffffffffffffffff168173ffffffffffffffffffffffffffffffffffffffff167f8be0079c531659141344cd1fd0a4f28419497f9722a3daafe3b4186f6b6457e060405160405180910390a35050565b828054620001cf90620002a0565b90600052602060002090601f016020900481019282620001f357600085556200023f565b82601f106200020e57805160ff19168380011785556200023f565b828001600101855582156200023f579182015b828111156200023e57825182559160200191906001019062000221565b5b5090506200024e919062000252565b5090565b5b808211156200026d57600081600090555060010162000253565b5090565b7f4e487b7100000000000000000000000000000000000000000000000000000000600052602260045260246000fd5b60006002820490506001821680620002b957607f821691505b602082108103620002cf57620002ce62000271565b5b50919050565b6146c080620002e56000396000f3fe6080604052600436106102515760003560e01c806370a0823111610139578063b0962c53116100b6578063c4ae31681161007a578063c4ae31681461083c578063c87b56dd14610853578063e222c7f914610890578063e8b5498d146108a7578063e985e9c5146108d2578063f2fde38b1461090f57610251565b8063b0962c531461077d578063b88d4fde146107a6578063ba7a86b8146107cf578063bc912e1a146107e6578063c08dfd3c1461081157610251565b80638bb64a8c116100fd5780638bb64a8c146106cb5780638da5cb5b146106e257806395d89b411461070d578063a0712d6814610738578063a22cb4651461075457610251565b806370a08231146105f8578063715018a6146106355780637cb647591461064c5780638456cb591461067557806386a173ee146106a057610251565b80632904e6d9116101d2578063495906571161019657806349590657146104f85780634cf5f7a41461052357806354214f691461054e5780635b8ad429146105795780636352211e1461059057806365f13097146105cd57610251565b80632904e6d91461044657806332cb6b0c1461046257806333bc1c5c1461048d5780633ccfd60b146104b857806342842e0e146104cf57610251565b8063081812fc11610219578063081812fc1461034f578063095ea7b31461038c57806318160ddd146103b55780631c16521c146103e057806323b872dd1461041d57610251565b806301ffc9a7146102565780630345e3cb146102935780630675b7c6146102d057806306fdde03146102f957806307e89ec014610324575b600080fd5b34801561026257600080fd5b5061027d60048036038101906102789190613228565b610938565b60405161028a9190613270565b60405180910390f35b34801561029f57600080fd5b506102ba60048036038101906102b591906132e9565b610a1a565b6040516102c7919061332f565b60405180910390f35b3480156102dc57600080fd5b506102f760048036038101906102f29190613490565b610a32565b005b34801561030557600080fd5b5061030e610ac8565b60405161031b9190613561565b60405180910390f35b34801561033057600080fd5b50610339610b5a565b604051610346919061332f565b60405180910390f35b34801561035b57600080fd5b50610376600480360381019061037191906135af565b610b65565b60405161038391906135eb565b60405180910390f35b34801561039857600080fd5b506103b360048036038101906103ae9190613606565b610be1565b005b3480156103c157600080fd5b506103ca610ce5565b6040516103d7919061332f565b60405180910390f35b3480156103ec57600080fd5b50610407600480360381019061040291906132e9565b610cfc565b604051610414919061332f565b60405180910390f35b34801561042957600080fd5b50610444600480360381019061043f9190613646565b610d14565b005b610460600480360381019061045b9190613797565b610d24565b005b34801561046e57600080fd5b50610477610ff6565b604051610484919061332f565b60405180910390f35b34801561049957600080fd5b506104a2610ffb565b6040516104af9190613270565b60405180910390f35b3480156104c457600080fd5b506104cd61100e565b005b3480156104db57600080fd5b506104f660048036038101906104f19190613646565b6110d3565b005b34801561050457600080fd5b5061050d6110f3565b60405161051a9190613802565b60405180910390f35b34801561052f57600080fd5b506105386110fd565b6040516105459190613561565b60405180910390f35b34801561055a57600080fd5b5061056361118b565b6040516105709190613270565b60405180910390f35b34801561058557600080fd5b5061058e61119e565b005b34801561059c57600080fd5b506105b760048036038101906105b291906135af565b611246565b6040516105c491906135eb565b60405180910390f35b3480156105d957600080fd5b506105e261125c565b6040516105ef919061332f565b60405180910390f35b34801561060457600080fd5b5061061f600480360381019061061a91906132e9565b611261565b60405161062c919061332f565b60405180910390f35b34801561064157600080fd5b5061064a611330565b005b34801561065857600080fd5b50610673600480360381019061066e919061381d565b6113b8565b005b34801561068157600080fd5b5061068a61143e565b6040516106979190613270565b60405180910390f35b3480156106ac57600080fd5b506106b5611451565b6040516106c29190613270565b60405180910390f35b3480156106d757600080fd5b506106e0611464565b005b3480156106ee57600080fd5b506106f761150c565b60405161070491906135eb565b60405180910390f35b34801561071957600080fd5b50610722611536565b60405161072f9190613561565b60405180910390f35b610752600480360381019061074d91906135af565b6115c8565b005b34801561076057600080fd5b5061077b60048036038101906107769190613876565b611821565b005b34801561078957600080fd5b506107a4600480360381019061079f9190613490565b611998565b005b3480156107b257600080fd5b506107cd60048036038101906107c89190613957565b611a2e565b005b3480156107db57600080fd5b506107e4611aa6565b005b3480156107f257600080fd5b506107fb611b9a565b604051610808919061332f565b60405180910390f35b34801561081d57600080fd5b50610826611ba5565b604051610833919061332f565b60405180910390f35b34801561084857600080fd5b50610851611baa565b005b34801561085f57600080fd5b5061087a600480360381019061087591906135af565b611c52565b6040516108879190613561565b60405180910390f35b34801561089c57600080fd5b506108a5611db4565b005b3480156108b357600080fd5b506108bc611e5c565b6040516108c99190613270565b60405180910390f35b3480156108de57600080fd5b506108f960048036038101906108f491906139da565b611e6f565b6040516109069190613270565b60405180910390f35b34801561091b57600080fd5b50610936600480360381019061093191906132e9565b611f03565b005b60007f80ac58cd000000000000000000000000000000000000000000000000000000007bffffffffffffffffffffffffffffffffffffffffffffffffffffffff1916827bffffffffffffffffffffffffffffffffffffffffffffffffffffffff19161480610a0357507f5b5e139f000000000000000000000000000000000000000000000000000000007bffffffffffffffffffffffffffffffffffffffffffffffffffffffff1916827bffffffffffffffffffffffffffffffffffffffffffffffffffffffff1916145b80610a135750610a1282611ffa565b5b9050919050565b600e6020528060005260406000206000915090505481565b610a3a612064565b73ffffffffffffffffffffffffffffffffffffffff16610a5861150c565b73ffffffffffffffffffffffffffffffffffffffff1614610aae576040517f08c379a0000000000000000000000000000000000000000000000000000000008152600401610aa590613a66565b60405180910390fd5b8060099080519060200190610ac49291906130d6565b5050565b606060028054610ad790613ab5565b80601f0160208091040260200160405190810160405280929190818152602001828054610b0390613ab5565b8015610b505780601f10610b2557610100808354040283529160200191610b50565b820191906000526020600020905b815481529060010190602001808311610b3357829003601f168201915b5050505050905090565b662386f26fc1000081565b6000610b708261206c565b610ba6576040517fcf4700e400000000000000000000000000000000000000000000000000000000815260040160405180910390fd5b6006600083815260200190815260200160002060009054906101000a900473ffffffffffffffffffffffffffffffffffffffff169050919050565b6000610bec82611246565b90508073ffffffffffffffffffffffffffffffffffffffff168373ffffffffffffffffffffffffffffffffffffffff1603610c53576040517f943f7b8c00000000000000000000000000000000000000000000000000000000815260040160405180910390fd5b8073ffffffffffffffffffffffffffffffffffffffff16610c72612064565b73ffffffffffffffffffffffffffffffffffffffff1614610cd557610c9e81610c99612064565b611e6f565b610cd4576040517fcfb3b94200000000000000000000000000000000000000000000000000000000815260040160405180910390fd5b5b610ce08383836120ba565b505050565b6000610cef61216c565b6001546000540303905090565b600d6020528060005260406000206000915090505481565b610d1f838383612171565b505050565b3373ffffffffffffffffffffffffffffffffffffffff163273ffffffffffffffffffffffffffffffffffffffff1614610d92576040517f08c379a0000000000000000000000000000000000000000000000000000000008152600401610d8990613b58565b60405180910390fd5b600b60029054906101000a900460ff16610de1576040517f08c379a0000000000000000000000000000000000000000000000000000000008152600401610dd890613bea565b60405180910390fd5b606481610dec610ce5565b610df69190613c39565b1115610e37576040517f08c379a0000000000000000000000000000000000000000000000000000000008152600401610e2e90613d01565b60405180910390fd5b600381600e60003373ffffffffffffffffffffffffffffffffffffffff1673ffffffffffffffffffffffffffffffffffffffff16815260200190815260200160002054610e849190613c39565b1115610ec5576040517f08c379a0000000000000000000000000000000000000000000000000000000008152600401610ebc90613d93565b60405180910390fd5b806611c37937e08000610ed89190613db3565b341015610f1a576040517f08c379a0000000000000000000000000000000000000000000000000000000008152600401610f1190613e7f565b60405180910390fd5b600033604051602001610f2d9190613ee7565b604051602081830303815290604052805190602001209050610f5283600c5483612625565b610f91576040517f08c379a0000000000000000000000000000000000000000000000000000000008152600401610f8890613f74565b60405180910390fd5b81600e60003373ffffffffffffffffffffffffffffffffffffffff1673ffffffffffffffffffffffffffffffffffffffff1681526020019081526020016000206000828254610fe09190613c39565b92505081905550610ff1338361263c565b505050565b606481565b600b60019054906101000a900460ff1681565b611016612064565b73ffffffffffffffffffffffffffffffffffffffff1661103461150c565b73ffffffffffffffffffffffffffffffffffffffff161461108a576040517f08c379a000000000000000000000000000000000000000000000000000000000815260040161108190613a66565b60405180910390fd5b3373ffffffffffffffffffffffffffffffffffffffff166108fc479081150290604051600060405180830381858888f193505050501580156110d0573d6000803e3d6000fd5b50565b6110ee83838360405180602001604052806000815250611a2e565b505050565b6000600c54905090565b600a805461110a90613ab5565b80601f016020809104026020016040519081016040528092919081815260200182805461113690613ab5565b80156111835780601f1061115857610100808354040283529160200191611183565b820191906000526020600020905b81548152906001019060200180831161116657829003601f168201915b505050505081565b600b60009054906101000a900460ff1681565b6111a6612064565b73ffffffffffffffffffffffffffffffffffffffff166111c461150c565b73ffffffffffffffffffffffffffffffffffffffff161461121a576040517f08c379a000000000000000000000000000000000000000000000000000000000815260040161121190613a66565b60405180910390fd5b600b60009054906101000a900460ff1615600b60006101000a81548160ff021916908315150217905550565b60006112518261265a565b600001519050919050565b600581565b60008073ffffffffffffffffffffffffffffffffffffffff168273ffffffffffffffffffffffffffffffffffffffff16036112c8576040517f8f4eb60400000000000000000000000000000000000000000000000000000000815260040160405180910390fd5b600560008373ffffffffffffffffffffffffffffffffffffffff1673ffffffffffffffffffffffffffffffffffffffff16815260200190815260200160002060000160009054906101000a900467ffffffffffffffff1667ffffffffffffffff169050919050565b611338612064565b73ffffffffffffffffffffffffffffffffffffffff1661135661150c565b73ffffffffffffffffffffffffffffffffffffffff16146113ac576040517f08c379a00000000000000000000000000000000000000000000000000000000081526004016113a390613a66565b60405180910390fd5b6113b660006128e5565b565b6113c0612064565b73ffffffffffffffffffffffffffffffffffffffff166113de61150c565b73ffffffffffffffffffffffffffffffffffffffff1614611434576040517f08c379a000000000000000000000000000000000000000000000000000000000815260040161142b90613a66565b60405180910390fd5b80600c8190555050565b600b60039054906101000a900460ff1681565b600b60029054906101000a900460ff1681565b61146c612064565b73ffffffffffffffffffffffffffffffffffffffff1661148a61150c565b73ffffffffffffffffffffffffffffffffffffffff16146114e0576040517f08c379a00000000000000000000000000000000000000000000000000000000081526004016114d790613a66565b60405180910390fd5b600b60029054906101000a900460ff1615600b60026101000a81548160ff021916908315150217905550565b6000600860009054906101000a900473ffffffffffffffffffffffffffffffffffffffff16905090565b60606003805461154590613ab5565b80601f016020809104026020016040519081016040528092919081815260200182805461157190613ab5565b80156115be5780601f10611593576101008083540402835291602001916115be565b820191906000526020600020905b8154815290600101906020018083116115a157829003601f168201915b5050505050905090565b3373ffffffffffffffffffffffffffffffffffffffff163273ffffffffffffffffffffffffffffffffffffffff1614611636576040517f08c379a000000000000000000000000000000000000000000000000000000000815260040161162d90613b58565b60405180910390fd5b600b60019054906101000a900460ff16611685576040517f08c379a000000000000000000000000000000000000000000000000000000000815260040161167c90613fe0565b60405180910390fd5b606481611690610ce5565b61169a9190613c39565b11156116db576040517f08c379a00000000000000000000000000000000000000000000000000000000081526004016116d29061404c565b60405180910390fd5b600581600d60003373ffffffffffffffffffffffffffffffffffffffff1673ffffffffffffffffffffffffffffffffffffffff168152602001908152602001600020546117289190613c39565b1115611769576040517f08c379a0000000000000000000000000000000000000000000000000000000008152600401611760906140de565b60405180910390fd5b80662386f26fc1000061177c9190613db3565b3410156117be576040517f08c379a00000000000000000000000000000000000000000000000000000000081526004016117b59061414a565b60405180910390fd5b80600d60003373ffffffffffffffffffffffffffffffffffffffff1673ffffffffffffffffffffffffffffffffffffffff168152602001908152602001600020600082825461180d9190613c39565b9250508190555061181e338261263c565b50565b611829612064565b73ffffffffffffffffffffffffffffffffffffffff168273ffffffffffffffffffffffffffffffffffffffff160361188d576040517fb06307db00000000000000000000000000000000000000000000000000000000815260040160405180910390fd5b806007600061189a612064565b73ffffffffffffffffffffffffffffffffffffffff1673ffffffffffffffffffffffffffffffffffffffff16815260200190815260200160002060008473ffffffffffffffffffffffffffffffffffffffff1673ffffffffffffffffffffffffffffffffffffffff16815260200190815260200160002060006101000a81548160ff0219169083151502179055508173ffffffffffffffffffffffffffffffffffffffff16611947612064565b73ffffffffffffffffffffffffffffffffffffffff167f17307eab39ab6107e8899845ad3d59bd9653f200f220920489ca2b5937696c318360405161198c9190613270565b60405180910390a35050565b6119a0612064565b73ffffffffffffffffffffffffffffffffffffffff166119be61150c565b73ffffffffffffffffffffffffffffffffffffffff1614611a14576040517f08c379a0000000000000000000000000000000000000000000000000000000008152600401611a0b90613a66565b60405180910390fd5b80600a9080519060200190611a2a9291906130d6565b5050565b611a39848484612171565b611a588373ffffffffffffffffffffffffffffffffffffffff166129ab565b15611aa057611a69848484846129ce565b611a9f576040517fd1a57ed600000000000000000000000000000000000000000000000000000000815260040160405180910390fd5b5b50505050565b611aae612064565b73ffffffffffffffffffffffffffffffffffffffff16611acc61150c565b73ffffffffffffffffffffffffffffffffffffffff1614611b22576040517f08c379a0000000000000000000000000000000000000000000000000000000008152600401611b1990613a66565b60405180910390fd5b600b60049054906101000a900460ff1615611b72576040517f08c379a0000000000000000000000000000000000000000000000000000000008152600401611b69906141dc565b60405180910390fd5b6001600b60046101000a81548160ff021916908315150217905550611b983360c861263c565b565b6611c37937e0800081565b600381565b611bb2612064565b73ffffffffffffffffffffffffffffffffffffffff16611bd061150c565b73ffffffffffffffffffffffffffffffffffffffff1614611c26576040517f08c379a0000000000000000000000000000000000000000000000000000000008152600401611c1d90613a66565b60405180910390fd5b600b60039054906101000a900460ff1615600b60036101000a81548160ff021916908315150217905550565b6060611c5d8261206c565b611c9c576040517f08c379a0000000000000000000000000000000000000000000000000000000008152600401611c939061426e565b60405180910390fd5b6000600183611cab9190613c39565b9050600b60009054906101000a900460ff16611d5457600a8054611cce90613ab5565b80601f0160208091040260200160405190810160405280929190818152602001828054611cfa90613ab5565b8015611d475780601f10611d1c57610100808354040283529160200191611d47565b820191906000526020600020905b815481529060010190602001808311611d2a57829003601f168201915b5050505050915050611daf565b600060098054611d6390613ab5565b905011611d7f5760405180602001604052806000815250611dab565b6009611d8a82612b1e565b604051602001611d9b9291906143aa565b6040516020818303038152906040525b9150505b919050565b611dbc612064565b73ffffffffffffffffffffffffffffffffffffffff16611dda61150c565b73ffffffffffffffffffffffffffffffffffffffff1614611e30576040517f08c379a0000000000000000000000000000000000000000000000000000000008152600401611e2790613a66565b60405180910390fd5b600b60019054906101000a900460ff1615600b60016101000a81548160ff021916908315150217905550565b600b60049054906101000a900460ff1681565b6000600760008473ffffffffffffffffffffffffffffffffffffffff1673ffffffffffffffffffffffffffffffffffffffff16815260200190815260200160002060008373ffffffffffffffffffffffffffffffffffffffff1673ffffffffffffffffffffffffffffffffffffffff16815260200190815260200160002060009054906101000a900460ff16905092915050565b611f0b612064565b73ffffffffffffffffffffffffffffffffffffffff16611f2961150c565b73ffffffffffffffffffffffffffffffffffffffff1614611f7f576040517f08c379a0000000000000000000000000000000000000000000000000000000008152600401611f7690613a66565b60405180910390fd5b600073ffffffffffffffffffffffffffffffffffffffff168173ffffffffffffffffffffffffffffffffffffffff1603611fee576040517f08c379a0000000000000000000000000000000000000000000000000000000008152600401611fe59061444b565b60405180910390fd5b611ff7816128e5565b50565b60007f01ffc9a7000000000000000000000000000000000000000000000000000000007bffffffffffffffffffffffffffffffffffffffffffffffffffffffff1916827bffffffffffffffffffffffffffffffffffffffffffffffffffffffff1916149050919050565b600033905090565b60008161207761216c565b11158015612086575060005482105b80156120b3575060046000838152602001908152602001600020600001601c9054906101000a900460ff16155b9050919050565b826006600084815260200190815260200160002060006101000a81548173ffffffffffffffffffffffffffffffffffffffff021916908373ffffffffffffffffffffffffffffffffffffffff160217905550818373ffffffffffffffffffffffffffffffffffffffff168273ffffffffffffffffffffffffffffffffffffffff167f8c5be1e5ebec7d5bd14f71427d1e84f3dd0314c0f7b2291e5b200ac8c7c3b92560405160405180910390a4505050565b600090565b600061217c8261265a565b90508373ffffffffffffffffffffffffffffffffffffffff16816000015173ffffffffffffffffffffffffffffffffffffffff16146121e7576040517fa114810000000000000000000000000000000000000000000000000000000000815260040160405180910390fd5b60008473ffffffffffffffffffffffffffffffffffffffff16612208612064565b73ffffffffffffffffffffffffffffffffffffffff161480612237575061223685612231612064565b611e6f565b5b8061227c5750612245612064565b73ffffffffffffffffffffffffffffffffffffffff1661226484610b65565b73ffffffffffffffffffffffffffffffffffffffff16145b9050806122b5576040517f59c896be00000000000000000000000000000000000000000000000000000000815260040160405180910390fd5b600073ffffffffffffffffffffffffffffffffffffffff168473ffffffffffffffffffffffffffffffffffffffff160361231b576040517fea553b3400000000000000000000000000000000000000000000000000000000815260040160405180910390fd5b6123288585856001612c7e565b612334600084876120ba565b6001600560008773ffffffffffffffffffffffffffffffffffffffff1673ffffffffffffffffffffffffffffffffffffffff16815260200190815260200160002060000160008282829054906101000a900467ffffffffffffffff160392506101000a81548167ffffffffffffffff021916908367ffffffffffffffff1602179055506001600560008673ffffffffffffffffffffffffffffffffffffffff1673ffffffffffffffffffffffffffffffffffffffff16815260200190815260200160002060000160008282829054906101000a900467ffffffffffffffff160192506101000a81548167ffffffffffffffff021916908367ffffffffffffffff1602179055506000600460008581526020019081526020016000209050848160000160006101000a81548173ffffffffffffffffffffffffffffffffffffffff021916908373ffffffffffffffffffffffffffffffffffffffff160217905550428160000160146101000a81548167ffffffffffffffff021916908367ffffffffffffffff16021790555060006001850190506000600460008381526020019081526020016000209050600073ffffffffffffffffffffffffffffffffffffffff168160000160009054906101000a900473ffffffffffffffffffffffffffffffffffffffff1673ffffffffffffffffffffffffffffffffffffffff16036125b35760005482146125b257878160000160006101000a81548173ffffffffffffffffffffffffffffffffffffffff021916908373ffffffffffffffffffffffffffffffffffffffff16021790555084602001518160000160146101000a81548167ffffffffffffffff021916908367ffffffffffffffff1602179055505b5b505050828473ffffffffffffffffffffffffffffffffffffffff168673ffffffffffffffffffffffffffffffffffffffff167fddf252ad1be2c89b69c2b068fc378daa952ba7f163c4a11628f55a4df523b3ef60405160405180910390a461261e8585856001612c84565b5050505050565b6000826126328584612c8a565b1490509392505050565b612656828260405180602001604052806000815250612cff565b5050565b61266261315c565b60008290508061267061216c565b116128ae576000548110156128ad576000600460008381526020019081526020016000206040518060600160405290816000820160009054906101000a900473ffffffffffffffffffffffffffffffffffffffff1673ffffffffffffffffffffffffffffffffffffffff1673ffffffffffffffffffffffffffffffffffffffff1681526020016000820160149054906101000a900467ffffffffffffffff1667ffffffffffffffff1667ffffffffffffffff16815260200160008201601c9054906101000a900460ff161515151581525050905080604001516128ab57600073ffffffffffffffffffffffffffffffffffffffff16816000015173ffffffffffffffffffffffffffffffffffffffff161461278f5780925050506128e0565b5b6001156128aa57818060019003925050600460008381526020019081526020016000206040518060600160405290816000820160009054906101000a900473ffffffffffffffffffffffffffffffffffffffff1673ffffffffffffffffffffffffffffffffffffffff1673ffffffffffffffffffffffffffffffffffffffff1681526020016000820160149054906101000a900467ffffffffffffffff1667ffffffffffffffff1667ffffffffffffffff16815260200160008201601c9054906101000a900460ff1615151515815250509050600073ffffffffffffffffffffffffffffffffffffffff16816000015173ffffffffffffffffffffffffffffffffffffffff16146128a55780925050506128e0565b612790565b5b505b5b6040517fdf2d9b4200000000000000000000000000000000000000000000000000000000815260040160405180910390fd5b919050565b6000600860009054906101000a900473ffffffffffffffffffffffffffffffffffffffff16905081600860006101000a81548173ffffffffffffffffffffffffffffffffffffffff021916908373ffffffffffffffffffffffffffffffffffffffff1602179055508173ffffffffffffffffffffffffffffffffffffffff168173ffffffffffffffffffffffffffffffffffffffff167f8be0079c531659141344cd1fd0a4f28419497f9722a3daafe3b4186f6b6457e060405160405180910390a35050565b6000808273ffffffffffffffffffffffffffffffffffffffff163b119050919050565b60008373ffffffffffffffffffffffffffffffffffffffff1663150b7a026129f4612064565b8786866040518563ffffffff1660e01b8152600401612a1694939291906144c0565b6020604051808303816000875af1925050508015612a5257506040513d601f19601f82011682018060405250810190612a4f9190614521565b60015b612acb573d8060008114612a82576040519150601f19603f3d011682016040523d82523d6000602084013e612a87565b606091505b506000815103612ac3576040517fd1a57ed600000000000000000000000000000000000000000000000000000000815260040160405180910390fd5b805181602001fd5b63150b7a0260e01b7bffffffffffffffffffffffffffffffffffffffffffffffffffffffff1916817bffffffffffffffffffffffffffffffffffffffffffffffffffffffff191614915050949350505050565b606060008203612b65576040518060400160405280600181526020017f30000000000000000000000000000000000000000000000000000000000000008152509050612c79565b600082905060005b60008214612b97578080612b809061454e565b915050600a82612b9091906145c5565b9150612b6d565b60008167ffffffffffffffff811115612bb357612bb2613365565b5b6040519080825280601f01601f191660200182016040528015612be55781602001600182028036833780820191505090505b5090505b60008514612c7257600182612bfe91906145f6565b9150600a85612c0d919061462a565b6030612c199190613c39565b60f81b818381518110612c2f57612c2e61465b565b5b60200101907effffffffffffffffffffffffffffffffffffffffffffffffffffffffffffff1916908160001a905350600a85612c6b91906145c5565b9450612be9565b8093505050505b919050565b50505050565b50505050565b60008082905060005b8451811015612cf4576000858281518110612cb157612cb061465b565b5b60200260200101519050808311612cd357612ccc83826130bf565b9250612ce0565b612cdd81846130bf565b92505b508080612cec9061454e565b915050612c93565b508091505092915050565b600080549050600073ffffffffffffffffffffffffffffffffffffffff168473ffffffffffffffffffffffffffffffffffffffff1603612d6b576040517f2e07630000000000000000000000000000000000000000000000000000000000815260040160405180910390fd5b60008303612da5576040517fb562e8dd00000000000000000000000000000000000000000000000000000000815260040160405180910390fd5b612db26000858386612c7e565b82600560008673ffffffffffffffffffffffffffffffffffffffff1673ffffffffffffffffffffffffffffffffffffffff16815260200190815260200160002060000160008282829054906101000a900467ffffffffffffffff160192506101000a81548167ffffffffffffffff021916908367ffffffffffffffff16021790555082600560008673ffffffffffffffffffffffffffffffffffffffff1673ffffffffffffffffffffffffffffffffffffffff16815260200190815260200160002060000160088282829054906101000a900467ffffffffffffffff160192506101000a81548167ffffffffffffffff021916908367ffffffffffffffff160217905550836004600083815260200190815260200160002060000160006101000a81548173ffffffffffffffffffffffffffffffffffffffff021916908373ffffffffffffffffffffffffffffffffffffffff160217905550426004600083815260200190815260200160002060000160146101000a81548167ffffffffffffffff021916908367ffffffffffffffff160217905550600081905060008482019050612f738673ffffffffffffffffffffffffffffffffffffffff166129ab565b15613038575b818673ffffffffffffffffffffffffffffffffffffffff16600073ffffffffffffffffffffffffffffffffffffffff167fddf252ad1be2c89b69c2b068fc378daa952ba7f163c4a11628f55a4df523b3ef60405160405180910390a4612fe860008784806001019550876129ce565b61301e576040517fd1a57ed600000000000000000000000000000000000000000000000000000000815260040160405180910390fd5b808210612f7957826000541461303357600080fd5b6130a3565b5b818060010192508673ffffffffffffffffffffffffffffffffffffffff16600073ffffffffffffffffffffffffffffffffffffffff167fddf252ad1be2c89b69c2b068fc378daa952ba7f163c4a11628f55a4df523b3ef60405160405180910390a4808210613039575b8160008190555050506130b96000858386612c84565b50505050565b600082600052816020526040600020905092915050565b8280546130e290613ab5565b90600052602060002090601f016020900481019282613104576000855561314b565b82601f1061311d57805160ff191683800117855561314b565b8280016001018555821561314b579182015b8281111561314a57825182559160200191906001019061312f565b5b509050613158919061319f565b5090565b6040518060600160405280600073ffffffffffffffffffffffffffffffffffffffff168152602001600067ffffffffffffffff1681526020016000151581525090565b5b808211156131b85760008160009055506001016131a0565b5090565b6000604051905090565b600080fd5b600080fd5b60007fffffffff0000000000000000000000000000000000000000000000000000000082169050919050565b613205816131d0565b811461321057600080fd5b50565b600081359050613222816131fc565b92915050565b60006020828403121561323e5761323d6131c6565b5b600061324c84828501613213565b91505092915050565b60008115159050919050565b61326a81613255565b82525050565b60006020820190506132856000830184613261565b92915050565b600073ffffffffffffffffffffffffffffffffffffffff82169050919050565b60006132b68261328b565b9050919050565b6132c6816132ab565b81146132d157600080fd5b50565b6000813590506132e3816132bd565b92915050565b6000602082840312156132ff576132fe6131c6565b5b600061330d848285016132d4565b91505092915050565b6000819050919050565b61332981613316565b82525050565b60006020820190506133446000830184613320565b92915050565b600080fd5b600080fd5b6000601f19601f8301169050919050565b7f4e487b7100000000000000000000000000000000000000000000000000000000600052604160045260246000fd5b61339d82613354565b810181811067ffffffffffffffff821117156133bc576133bb613365565b5b80604052505050565b60006133cf6131bc565b90506133db8282613394565b919050565b600067ffffffffffffffff8211156133fb576133fa613365565b5b61340482613354565b9050602081019050919050565b82818337600083830152505050565b600061343361342e846133e0565b6133c5565b90508281526020810184848401111561344f5761344e61334f565b5b61345a848285613411565b509392505050565b600082601f8301126134775761347661334a565b5b8135613487848260208601613420565b91505092915050565b6000602082840312156134a6576134a56131c6565b5b600082013567ffffffffffffffff8111156134c4576134c36131cb565b5b6134d084828501613462565b91505092915050565b600081519050919050565b600082825260208201905092915050565b60005b838110156135135780820151818401526020810190506134f8565b83811115613522576000848401525b50505050565b6000613533826134d9565b61353d81856134e4565b935061354d8185602086016134f5565b61355681613354565b840191505092915050565b6000602082019050818103600083015261357b8184613528565b905092915050565b61358c81613316565b811461359757600080fd5b50565b6000813590506135a981613583565b92915050565b6000602082840312156135c5576135c46131c6565b5b60006135d38482850161359a565b91505092915050565b6135e5816132ab565b82525050565b600060208201905061360060008301846135dc565b92915050565b6000806040838503121561361d5761361c6131c6565b5b600061362b858286016132d4565b925050602061363c8582860161359a565b9150509250929050565b60008060006060848603121561365f5761365e6131c6565b5b600061366d868287016132d4565b935050602061367e868287016132d4565b925050604061368f8682870161359a565b9150509250925092565b600067ffffffffffffffff8211156136b4576136b3613365565b5b602082029050602081019050919050565b600080fd5b6000819050919050565b6136dd816136ca565b81146136e857600080fd5b50565b6000813590506136fa816136d4565b92915050565b600061371361370e84613699565b6133c5565b90508083825260208201905060208402830185811115613736576137356136c5565b5b835b8181101561375f578061374b88826136eb565b845260208401935050602081019050613738565b5050509392505050565b600082601f83011261377e5761377d61334a565b5b813561378e848260208601613700565b91505092915050565b600080604083850312156137ae576137ad6131c6565b5b600083013567ffffffffffffffff8111156137cc576137cb6131cb565b5b6137d885828601613769565b92505060206137e98582860161359a565b9150509250929050565b6137fc816136ca565b82525050565b600060208201905061381760008301846137f3565b92915050565b600060208284031215613833576138326131c6565b5b6000613841848285016136eb565b91505092915050565b61385381613255565b811461385e57600080fd5b50565b6000813590506138708161384a565b92915050565b6000806040838503121561388d5761388c6131c6565b5b600061389b858286016132d4565b92505060206138ac85828601613861565b9150509250929050565b600067ffffffffffffffff8211156138d1576138d0613365565b5b6138da82613354565b9050602081019050919050565b60006138fa6138f5846138b6565b6133c5565b9050828152602081018484840111156139165761391561334f565b5b613921848285613411565b509392505050565b600082601f83011261393e5761393d61334a565b5b813561394e8482602086016138e7565b91505092915050565b60008060008060808587031215613971576139706131c6565b5b600061397f878288016132d4565b9450506020613990878288016132d4565b93505060406139a18782880161359a565b925050606085013567ffffffffffffffff8111156139c2576139c16131cb565b5b6139ce87828801613929565b91505092959194509250565b600080604083850312156139f1576139f06131c6565b5b60006139ff858286016132d4565b9250506020613a10858286016132d4565b9150509250929050565b7f4f776e61626c653a2063616c6c6572206973206e6f7420746865206f776e6572600082015250565b6000613a506020836134e4565b9150613a5b82613a1a565b602082019050919050565b60006020820190508181036000830152613a7f81613a43565b9050919050565b7f4e487b7100000000000000000000000000000000000000000000000000000000600052602260045260246000fd5b60006002820490506001821680613acd57607f821691505b602082108103613ae057613adf613a86565b5b50919050565b7f48656e2070726f6a656374203a3a2043616e6e6f742062652063616c6c65642060008201527f6279206120636f6e747261637400000000000000000000000000000000000000602082015250565b6000613b42602d836134e4565b9150613b4d82613ae6565b604082019050919050565b60006020820190508181036000830152613b7181613b35565b9050919050565b7f48656e2070726f6a656374203a3a204d696e74696e67206973206f6e2050617560008201527f7365000000000000000000000000000000000000000000000000000000000000602082015250565b6000613bd46022836134e4565b9150613bdf82613b78565b604082019050919050565b60006020820190508181036000830152613c0381613bc7565b9050919050565b7f4e487b7100000000000000000000000000000000000000000000000000000000600052601160045260246000fd5b6000613c4482613316565b9150613c4f83613316565b9250827fffffffffffffffffffffffffffffffffffffffffffffffffffffffffffffffff03821115613c8457613c83613c0a565b5b828201905092915050565b7f48656e2070726f6a65637473203a3a2043616e6e6f74206d696e74206265796f60008201527f6e64206d617820737570706c7900000000000000000000000000000000000000602082015250565b6000613ceb602d836134e4565b9150613cf682613c8f565b604082019050919050565b60006020820190508181036000830152613d1a81613cde565b9050919050565b7f48656e2070726f6a656374203a3a2043616e6e6f74206d696e74206265796f6e60008201527f642077686974656c697374206d6178206d696e74210000000000000000000000602082015250565b6000613d7d6035836134e4565b9150613d8882613d21565b604082019050919050565b60006020820190508181036000830152613dac81613d70565b9050919050565b6000613dbe82613316565b9150613dc983613316565b9250817fffffffffffffffffffffffffffffffffffffffffffffffffffffffffffffffff0483118215151615613e0257613e01613c0a565b5b828202905092915050565b7f48656e2070726f6a656374203a3a205061796d656e742069732062656c6f772060008201527f7468652070726963650000000000000000000000000000000000000000000000602082015250565b6000613e696029836134e4565b9150613e7482613e0d565b604082019050919050565b60006020820190508181036000830152613e9881613e5c565b9050919050565b60008160601b9050919050565b6000613eb782613e9f565b9050919050565b6000613ec982613eac565b9050919050565b613ee1613edc826132ab565b613ebe565b82525050565b6000613ef38284613ed0565b60148201915081905092915050565b7f48656e2070726f6a656374203a3a20596f7520617265206e6f7420776869746560008201527f6c69737465640000000000000000000000000000000000000000000000000000602082015250565b6000613f5e6026836134e4565b9150613f6982613f02565b604082019050919050565b60006020820190508181036000830152613f8d81613f51565b9050919050565b7f537175617265204265617273203a3a204e6f7420596574204163746976652e00600082015250565b6000613fca601f836134e4565b9150613fd582613f94565b602082019050919050565b60006020820190508181036000830152613ff981613fbd565b9050919050565b7f48656e2070726f6a656374203a3a204265796f6e64204d617820537570706c79600082015250565b60006140366020836134e4565b915061404182614000565b602082019050919050565b6000602082019050818103600083015261406581614029565b9050919050565b7f48656e2070726f6a656374203a3a20416c7265616479206d696e74656420332060008201527f74696d6573210000000000000000000000000000000000000000000000000000602082015250565b60006140c86026836134e4565b91506140d38261406c565b604082019050919050565b600060208201905081810360008301526140f7816140bb565b9050919050565b7f48656e2070726f6a656374203a3a2042656c6f77200000000000000000000000600082015250565b60006141346015836134e4565b915061413f826140fe565b602082019050919050565b6000602082019050818103600083015261416381614127565b9050919050565b7f537175617265204265617273203a3a205465616d20616c7265616479206d696e60008201527f7465640000000000000000000000000000000000000000000000000000000000602082015250565b60006141c66023836134e4565b91506141d18261416a565b604082019050919050565b600060208201905081810360008301526141f5816141b9565b9050919050565b7f4552433732314d657461646174613a2055524920717565727920666f72206e6f60008201527f6e6578697374656e7420746f6b656e0000000000000000000000000000000000602082015250565b6000614258602f836134e4565b9150614263826141fc565b604082019050919050565b600060208201905081810360008301526142878161424b565b9050919050565b600081905092915050565b60008190508160005260206000209050919050565b600081546142bb81613ab5565b6142c5818661428e565b945060018216600081146142e057600181146142f157614324565b60ff19831686528186019350614324565b6142fa85614299565b60005b8381101561431c578154818901526001820191506020810190506142fd565b838801955050505b50505092915050565b6000614338826134d9565b614342818561428e565b93506143528185602086016134f5565b80840191505092915050565b7f2e6a736f6e000000000000000000000000000000000000000000000000000000600082015250565b600061439460058361428e565b915061439f8261435e565b600582019050919050565b60006143b682856142ae565b91506143c2828461432d565b91506143cd82614387565b91508190509392505050565b7f4f776e61626c653a206e6577206f776e657220697320746865207a65726f206160008201527f6464726573730000000000000000000000000000000000000000000000000000602082015250565b60006144356026836134e4565b9150614440826143d9565b604082019050919050565b6000602082019050818103600083015261446481614428565b9050919050565b600081519050919050565b600082825260208201905092915050565b60006144928261446b565b61449c8185614476565b93506144ac8185602086016134f5565b6144b581613354565b840191505092915050565b60006080820190506144d560008301876135dc565b6144e260208301866135dc565b6144ef6040830185613320565b81810360608301526145018184614487565b905095945050505050565b60008151905061451b816131fc565b92915050565b600060208284031215614537576145366131c6565b5b60006145458482850161450c565b91505092915050565b600061455982613316565b91507fffffffffffffffffffffffffffffffffffffffffffffffffffffffffffffffff820361458b5761458a613c0a565b5b600182019050919050565b7f4e487b7100000000000000000000000000000000000000000000000000000000600052601260045260246000fd5b60006145d082613316565b91506145db83613316565b9250826145eb576145ea614596565b5b828204905092915050565b600061460182613316565b915061460c83613316565b92508282101561461f5761461e613c0a565b5b828203905092915050565b600061463582613316565b915061464083613316565b9250826146505761464f614596565b5b828206905092915050565b7f4e487b7100000000000000000000000000000000000000000000000000000000600052603260045260246000fdfea26469706673582212209fbc84b420fed8243c5db1bda3276845f60b2608defeef04ddb5bb6cb3f99ba264736f6c634300080d0033",
  "immutableReferences": {},
  "source": "// SPDX-License-Identifier: MIT\npragma solidity ^0.8.0;\n\nimport \"../node_modules/erc721a/contracts/ERC721A.sol\";\nimport \"@openzeppelin/contracts/access/Ownable.sol\";\nimport \"@openzeppelin/contracts/utils/cryptography/MerkleProof.sol\";\n\ncontract MerkleProofCollectible is ERC721A, Ownable {\n    using Strings for uint256;\n\n    uint256 public constant MAX_SUPPLY = 100;\n    uint256 public constant MAX_PUBLIC_MINT = 5;\n    uint256 public constant MAX_WHITELIST_MINT = 3;\n    uint256 public constant PUBLIC_SALE_PRICE = .01 ether;\n    uint256 public constant WHITELIST_SALE_PRICE = .005 ether;\n\n    string private baseTokenUri;\n    string public placeholderTokenUri;\n\n    //deploy smart contract, toggle WL, toggle WL when done, toggle publicSale\n    //2 days later toggle reveal\n    bool public isRevealed;\n    bool public publicSale;\n    bool public whiteListSale;\n    bool public pause;\n    bool public teamMinted;\n\n    bytes32 private merkleRoot;\n\n    mapping(address => uint256) public totalPublicMint;\n    mapping(address => uint256) public totalWhitelistMint;\n\n    constructor() ERC721A(\"Hen Project\", \"HEN\") {}\n\n    modifier callerIsUser() {\n        require(\n            tx.origin == msg.sender,\n            \"Hen project :: Cannot be called by a contract\"\n        );\n        _;\n    }\n\n    function mint(uint256 _quantity) external payable callerIsUser {\n        require(publicSale, \"Square Bears :: Not Yet Active.\");\n        require(\n            (totalSupply() + _quantity) <= MAX_SUPPLY,\n            \"Hen project :: Beyond Max Supply\"\n        );\n        require(\n            (totalPublicMint[msg.sender] + _quantity) <= MAX_PUBLIC_MINT,\n            \"Hen project :: Already minted 3 times!\"\n        );\n        require(\n            msg.value >= (PUBLIC_SALE_PRICE * _quantity),\n            \"Hen project :: Below \"\n        );\n\n        totalPublicMint[msg.sender] += _quantity;\n        _safeMint(msg.sender, _quantity);\n    }\n\n    function whitelistMint(bytes32[] memory _merkleProof, uint256 _quantity)\n        external\n        payable\n        callerIsUser\n    {\n        require(whiteListSale, \"Hen project :: Minting is on Pause\");\n        require(\n            (totalSupply() + _quantity) <= MAX_SUPPLY,\n            \"Hen projects :: Cannot mint beyond max supply\"\n        );\n        require(\n            (totalWhitelistMint[msg.sender] + _quantity) <= MAX_WHITELIST_MINT,\n            \"Hen project :: Cannot mint beyond whitelist max mint!\"\n        );\n        require(\n            msg.value >= (WHITELIST_SALE_PRICE * _quantity),\n            \"Hen project :: Payment is below the price\"\n        );\n        //create leaf node\n        bytes32 sender = keccak256(abi.encodePacked(msg.sender));\n        require(\n            MerkleProof.verify(_merkleProof, merkleRoot, sender),\n            \"Hen project :: You are not whitelisted\"\n        );\n\n        totalWhitelistMint[msg.sender] += _quantity;\n        _safeMint(msg.sender, _quantity);\n    }\n\n    function teamMint() external onlyOwner {\n        require(!teamMinted, \"Square Bears :: Team already minted\");\n        teamMinted = true;\n        _safeMint(msg.sender, 200);\n    }\n\n    function _baseURI() internal view virtual override returns (string memory) {\n        return baseTokenUri;\n    }\n\n    //return uri for certain token\n    function tokenURI(uint256 tokenId)\n        public\n        view\n        virtual\n        override\n        returns (string memory)\n    {\n        require(\n            _exists(tokenId),\n            \"ERC721Metadata: URI query for nonexistent token\"\n        );\n\n        uint256 trueId = tokenId + 1;\n\n        if (!isRevealed) {\n            return placeholderTokenUri;\n        }\n        //string memory baseURI = _baseURI();\n        return\n            bytes(baseTokenUri).length > 0\n                ? string(\n                    abi.encodePacked(baseTokenUri, trueId.toString(), \".json\")\n                )\n                : \"\";\n    }\n\n    function setTokenUri(string memory _baseTokenUri) external onlyOwner {\n        baseTokenUri = _baseTokenUri;\n    }\n\n    function setPlaceHolderUri(string memory _placeholderTokenUri)\n        external\n        onlyOwner\n    {\n        placeholderTokenUri = _placeholderTokenUri;\n    }\n\n    function setMerkleRoot(bytes32 _merkleRoot) external onlyOwner {\n        merkleRoot = _merkleRoot;\n    }\n\n    function getMerkleRoot() external view returns (bytes32) {\n        return merkleRoot;\n    }\n\n    function togglePause() external onlyOwner {\n        pause = !pause;\n    }\n\n    function toggleWhiteListSale() external onlyOwner {\n        whiteListSale = !whiteListSale;\n    }\n\n    function togglePublicSale() external onlyOwner {\n        publicSale = !publicSale;\n    }\n\n    function toggleReveal() external onlyOwner {\n        isRevealed = !isRevealed;\n    }\n\n    function withdraw() external onlyOwner {\n        payable(msg.sender).transfer(address(this).balance);\n    }\n}\n",
  "sourcePath": "/Users/user/PycharmProjects/demos/minting-website-truffle/contracts/MerkleProofCollectible.sol",
  "compiler": {
    "name": "solc",
    "version": "0.8.13+commit.abaa5c0e.Emscripten.clang"
  },
  "schemaVersion": "3.4.7",
  "updatedAt": "2022-05-18T17:11:23.352Z",
  "devdoc": {
    "kind": "dev",
    "methods": {
      "approve(address,uint256)": {
        "details": "See {IERC721-approve}."
      },
      "balanceOf(address)": {
        "details": "See {IERC721-balanceOf}."
      },
      "getApproved(uint256)": {
        "details": "See {IERC721-getApproved}."
      },
      "isApprovedForAll(address,address)": {
        "details": "See {IERC721-isApprovedForAll}."
      },
      "name()": {
        "details": "See {IERC721Metadata-name}."
      },
      "owner()": {
        "details": "Returns the address of the current owner."
      },
      "ownerOf(uint256)": {
        "details": "See {IERC721-ownerOf}."
      },
      "renounceOwnership()": {
        "details": "Leaves the contract without owner. It will not be possible to call `onlyOwner` functions anymore. Can only be called by the current owner. NOTE: Renouncing ownership will leave the contract without an owner, thereby removing any functionality that is only available to the owner."
      },
      "safeTransferFrom(address,address,uint256)": {
        "details": "See {IERC721-safeTransferFrom}."
      },
      "safeTransferFrom(address,address,uint256,bytes)": {
        "details": "See {IERC721-safeTransferFrom}."
      },
      "setApprovalForAll(address,bool)": {
        "details": "See {IERC721-setApprovalForAll}."
      },
      "supportsInterface(bytes4)": {
        "details": "See {IERC165-supportsInterface}."
      },
      "symbol()": {
        "details": "See {IERC721Metadata-symbol}."
      },
      "tokenURI(uint256)": {
        "details": "See {IERC721Metadata-tokenURI}."
      },
      "totalSupply()": {
        "details": "Burned tokens are calculated here, use _totalMinted() if you want to count just minted tokens."
      },
      "transferFrom(address,address,uint256)": {
        "details": "See {IERC721-transferFrom}."
      },
      "transferOwnership(address)": {
        "details": "Transfers ownership of the contract to a new account (`newOwner`). Can only be called by the current owner."
      }
    },
    "version": 1
  },
  "userdoc": {
    "errors": {
      "ApprovalCallerNotOwnerNorApproved()": [
        {
          "notice": "The caller must own the token or be an approved operator."
        }
      ],
      "ApprovalQueryForNonexistentToken()": [
        {
          "notice": "The token does not exist."
        }
      ],
      "ApprovalToCurrentOwner()": [
        {
          "notice": "The caller cannot approve to the current owner."
        }
      ],
      "ApproveToCaller()": [
        {
          "notice": "The caller cannot approve to their own address."
        }
      ],
      "BalanceQueryForZeroAddress()": [
        {
          "notice": "Cannot query the balance for the zero address."
        }
      ],
      "MintToZeroAddress()": [
        {
          "notice": "Cannot mint to the zero address."
        }
      ],
      "MintZeroQuantity()": [
        {
          "notice": "The quantity of tokens minted must be more than zero."
        }
      ],
      "OwnerQueryForNonexistentToken()": [
        {
          "notice": "The token does not exist."
        }
      ],
      "TransferCallerNotOwnerNorApproved()": [
        {
          "notice": "The caller must own the token or be an approved operator."
        }
      ],
      "TransferFromIncorrectOwner()": [
        {
          "notice": "The token must be owned by `from`."
        }
      ],
      "TransferToNonERC721ReceiverImplementer()": [
        {
          "notice": "Cannot safely transfer to a contract that does not implement the ERC721Receiver interface."
        }
      ],
      "TransferToZeroAddress()": [
        {
          "notice": "Cannot transfer to the zero address."
        }
      ],
      "URIQueryForNonexistentToken()": [
        {
          "notice": "The token does not exist."
        }
      ]
    },
    "kind": "user",
    "methods": {},
    "version": 1
  }
}